S027000062696E2F64656D6F70726F675F6E75636C656F5F73746D33326631303372622E737265636D
S3150800200000500020A5210008EB210008ED2100085A
S31508002010EF210008F1210008F32100080000000064
S31508002020000000000000000000000000F521000884
S31508002030F721000800000000F9210008A125000882
S31508002040FF210008012200080322000805220008D3
S3150800205007220008092200080B2200080D220008A2
S315080020600F22000811220008132200081522000872
S3150800207017220008192200081B2200081D22000842
S315080020801F22000821220008232200082522000812
S3150800209027220008292200082B2200082D220008E2
S315080020A02F220008312200083322000835220008B2
S315080020B037220008392200083B2200083D22000882
S315080020C03F22000841220008432200084522000852
S315080020D047220008492200084B2200084D22000822
S315080020E04F2200085122000853220008EE11AA5573
S315080020F010B5054C237833B9044B13B10448AFF334
S3150800210000800123237010BD7C0000200000000021
S31508002110E028000808B5034B1BB103490348AFF391
S31508002120008008BD0000000080000020E0280008AC
S31508002130154B002B08BF134B9D46A3F5803A00218B
S315080021408B460F461348144A121A00F0B3FB0F4B7E
S31508002150002B00D098470E4B002B00D09847002044
S31508002160002104000D000D48002802D00C48AFF3EA
S31508002170008000F07BFB2000290000F0A7F900F0A2
S3150800218061FB00BF000008000050002000000000AE
S31508002190000000007C000020EC0000200000000089
S315080021A00000000006498D460649074A074B9A4231
S315080021B0BEBF51F8040B42F8040BF8E70448004781
S315080021C000500020EC280008000000207C000020B9
S315080021D0312100081F49204A002301E041F8043B49
S315080021E09142FBD300F072F9FEE7FEE7FEE7FEE751
S315080021F0FEE7FEE7FEE7FEE7FEE7FEE7FEE7FEE7A9
S31508002200FEE7FEE7FEE7FEE7FEE7FEE7FEE7FEE798
S31508002210FEE7FEE7FEE7FEE7FEE7FEE7FEE7FEE788
S31508002220FEE7FEE7FEE7FEE7FEE7FEE7FEE7FEE778
S31508002230FEE7FEE7FEE7FEE7FEE7FEE7FEE7FEE768
S31508002240FEE7FEE7FEE7FEE7FEE7FEE7FEE7FEE758
S31508002250FEE7FEE77C000020EC00002030B587B0E2
S3150800226001214FF4003000F00FFA0121052000F09B
S31508002270FDF918238DF817300425ADF814500323FB
S315080022808DF81630144C05A9204600F087FA8DF80B
S3150800229017500823ADF8143005A9204600F07EFA39
S315080022A04FF4614301930023ADF80830ADF80A30C6
S315080022B0ADF80C30ADF810300C23ADF80E30A4F59F
S315080022C044440DEB0501204600F0ECF901212046B7
S315080022D000F04CFA07B030BD0008014010B50446BE
S315080022E02021064800F053FA012801D0002010BD2D
S315080022F0024800F048FA20700120F8E70044004040
S3150800230008B5FFF7ABFF08BD0449CA6802F4E062E6
S31508002310034B1343CB60BFF34F8FFEE700ED00E09E
S315080023200400FA0508B5224B1B78B3B92148FFF714
S31508002330D5FF012800D008BD1E4B1B78013BDBB238
S315080023403F2BF8D800F026F91B4B1860184B0122D2
S315080023501A701A4B00221A70EDE7184B1B780133D6
S3150800236014481844FFF7BAFF012815D1134A137801
S315080023700133DBB213700F4A12789342DBD10C4B50
S3150800238000221A700B4B5B78FF2BD4D1094B9B7834
S31508002390002BD0D1FFF7B8FF00F0FCF8064B1B68FE
S315080023A064339842C7D9024B00221A70C3E700BFAC
S315080023B0D900002098000020DC000020DA00002068
S315080023C008B5FFF7AFFF08BD00B583B0002301933A
S315080023D0009303F1804303F504331A6842F00102BF
S315080023E01A605968364A0A405A601A6822F0847296
S315080023F022F480321A601A6822F480221A605A6817
S3150800240022F4FE025A604FF41F029A601A6842F4D8
S3150800241080321A602B4B1B6803F400330093019B30
S3150800242001330193009B23B9019A40F2DC539A4287
S31508002430F0D1244B1B6813F4003F00D1FEE7224B72
S315080024401A6842F010021A601A6822F003021A602B
S315080024501A6842F002021A60A3F580535A685A6055
S315080024605A6842F400525A605A6842F480625A60C6
S315080024705A6822F47C125A605A6842F4E8125A6082
S315080024801A6842F080721A600E4B1B6813F0007FC0
S31508002490FAD00C4B5A6822F003025A605A6842F086
S315080024A002025A60074B5B6803F00C03082BF9D14C
S315080024B000F016F800F058F803B05DF804FB00BF0A
S315080024C00000FFF8001002400020024008B5FFF7A0
S315080024D07BFFFFF715FF00F01BF8FFF771FFFAE720
S315080024E000B583B00121042000F0C0F82023ADF820
S315080024F0043003238DF8063010238DF8073001A920
S31508002500024800F04BF903B05DF804FB00080140EF
S3150800251010B500F03FF80E4B1B68C31AB3F5FA7FE7
S315080025200CD304460B4B1B784BB90A4B01221A7085
S315080025302021094800F081F9054B1C6010BD054BA8
S3150800254000221A702021044800F079F9F4E700BF48
S31508002550E4000020E000002000080140014B18605C
S31508002560704700BFE800002008B5074B074A5A60C5
S31508002570074AF02182F823100020986007221A6083
S31508002580FFF7ECFF08BD00BF10E000E03F190100AF
S3150800259000ED00E0014B1868704700BFE800002016
S315080025A0024A136801331360704700BFE800002031
S315080025B010B4294B5B6803F00C03042B2BD0082BB3
S315080025C02CD013B1254B036001E0244B036022494C
S315080025D04B68C3F30313224CE35CDAB20368D340B7
S315080025E043604A68C2F30222A25CD2B223FA02F21C
S315080025F082604A68C2F3C222A25CD2B2D340C360E8
S315080026004A68C2F3813217498A5CD2B2B3FBF2F345
S31508002610036110BC7047114B0360D8E70E4A536834
S315080026205268C3F38343023312F4803F04D10E4A3F
S3150800263002FB03F30360CAE7074A526812F4003F35
S3150800264004D0094A02FB03F30360C0E7034A02FB0E
S3150800265003F30360BBE700BF0010024000127A00D4
S31508002660040000200000002000093D0021B1054AB1
S315080026709369034393617047024A936923EA000307
S31508002680936170470010024021B1054AD36903439C
S31508002690D3617047024AD36923EA0003D3617047BE
S315080026A00010024030B587B004460D46038A9BB237
S315080026B0CA8823F440531343038283899BB28988CB
S315080026C028896A8901430A4323F4B05323F00C038B
S315080026D01343A381A38A9BB2AA8923F440731343A5
S315080026E0A38201A8FFF764FF1E4B9C4224D0039BDC
S315080026F0A28912F4004F21D103EB830303EB830372
S3150800270029688900B3FBF1F1174BA3FB012358098C
S315080027100501642300FB1313A28912F4004F16D196
S315080027201B013233104AA2FB0323C3F343132B4383
S315080027309BB2238107B030BD049BD9E703EB830323
S3150800274003EB830329684900B3FBF1F1DCE7DA0000
S315080027503232054BA3FB0232C2F3421242EA0503A8
S31508002760E6E700BF003801401F85EB5121B1838998
S3150800277043F400538381704783899BB223F4005343
S315080027809BB2838170478088C0F30800704703882E
S31508002790194201D00120704700207047F0B4CB7869
S315080027A003F00F02154613F0100F01D08D7815436C
S315080027B00B78E3B10668002301E042610133072B79
S315080027C014D801229A400C8832EA0404F6D19C00F7
S315080027D00F27A74026EA070605FA04F42643CC780D
S315080027E0282CEAD0482CE9D10261E7E706600B8875
S315080027F0FF2B20D94668002302E0426115E0013329
S31508002800072B17D803F108040122A2400C8832EAE4
S315080028100404F4D19C000F27A74026EA070605FA08
S3150800282004F42643CC78282CE7D0CC78482CE6D17B
S315080028300261E4E74660F0BC704701617047416198
S315080028407047FEE708B5074B044613B10021AFF3FE
S315080028500080054B1868836A03B198472046FFF73E
S31508002860F0FF00BF00000000DC28000870B5002655
S315080028700C4D0D4C641BA410A64209D100F022F899
S3150800288000260A4D0A4C641BA410A64205D170BD49
S3150800289055F8043B98470136EEE755F8043B984748
S315080028A00136F2E77400002074000020740000204E
S315080028B07800002003460244934200D1704703F88B
S315080028C0011BF9E7F8B500BFF8BC08BC9E4670477F
S315080028D0F8B500BFF8BC08BC9E4670471400002037
S309080028E000000000E6
S30D080028E44CF8FF7F010000001B
S315080028EC02040608000000000102030401020304A6
S315080028FC06070809000000000000000000000000A0
S3150800290C00000000000000000000000000000000AD
S3150800291C000000000000000000000000000000009D
S3150800292C000000000000000000000000000000008D
S3150800293C000000000000000000000000000000007D
S3150800294C000000000000000000000000000000006D
S3110800295C0000000015210008F12000080A
S70508002000D2
